:100000000000022091010000BD010000BD010000C0
:10001000BD010000BD010000BD010000BD010000E8
:10002000BD010000BD010000BD010000BD010000D8
:10003000BD010000BC010000BD010000BD010000C9
:10004000BD01000069270000552C0000BD01000023
:10005000BD010000BD010000BD010000BD010000A8
:10006000BD010000BD010000BD0100008D270000A2
:10007000BD010000BD010000BD010000BD01000088
:10008000BD010000BD010000BD010000BD01000078
:10009000DD2C0000BD010000BD010000BD0100001D
:1000A000BD010000BD010000BD010000BD01000058
:1000B000BD010000BD010000BD010000BD01000048
:1000C000BD010000BD010000BD010000BD01000038
:1000D000BD010000BD010000BD01000010B5054CD0
:1000E000237833B9044B13B10448AFF300800123E4
:1000F000237010BD7C00002000000000843600004A
:1001000008B5034B1BB103490348AFF3008008BD9A
:10011000000000008000002084360000154B002BFA
:1001200008BF134B9D46A3F5803A00218B460F462E
:100130001348144A121A03F067F90F4B002B00D032
:1001400098470E4B002B00D0984700200021040058
:100150000D000D48002802D00C48AFF3008003F0DA
:100160002FF92000290002F037FC03F015F900BF39
:100170000000080000000220000000000000000055
:100180007C000020A404002000000000000000000B
:10019000064880470649074A074B9A42BEBF51F8B6
:1001A000040B42F8040BF8E7FFF7B8FF3503000033
:1001B00090360000000000207C000020FEE700BF19
:1001C00080B400AF034BDB6C1B0EDBB21846BD46A0
:1001D00080BC7047B081E00F80B582B000AF00F006
:1001E0001FF87860074B5B6803F00F037A6822FA08
:1001F00003F37B60044A7B6813607B68184608370A
:10020000BD4680BD00800C400800002080B400AFD7
:10021000024B1846BD4680BC704700BF006CDC0234
:1002200080B582B000AF334BDB6A03F47053B3F593
:10023000805F0AD0B3F5005F03D0B3F5006F08D03C
:100240000BE02D4B1B687B6047E04FF400437B6065
:1002500043E02A4B1B687B603FE0264BDB6803F4DE
:10026000E063B3F5007F1BD0B3F5007F05D8002B0A
:1002700024D0B3F5807F16D02BE0B3F5806F09D082
:10028000B3F5A06F03D0B3F5407F06D021E01C4B3F
:100290007B6021E01B4B7B601EE01B4B7B601BE007
:1002A0001A4B7B6018E0FFF78BFF0346122B02D935
:1002B000174B7B6010E0174B7B600DE0FFF780FF72
:1002C0000346122B02D9144B7B6005E0134B7B6075
:1002D00002E000237B6000BF00BF064B1B689B0B46
:1002E00003F0070301337A68B2FBF3F318460837CB
:1002F000BD4680BD00800C400400002000000020AE
:10030000003FAB01406F4001809FD500C0D8A700DF
:1003100040B56400C0CF6A00804F120040420F0019
:1003200080B400AF024B1B681846BD4680BC7047C6
:100330000000002080B400AF034B044A9A6000BF65
:10034000BD4680BC704700BF00ED00E0000000002B
:1003500080B400AF4FF400431846BD4680BC7047E0
:1003600080B400AF4FF47A731846BD4680BC704726
:1003700080B400AF024B1B681846BD4680BC704776
:100380000400002080B483B000AF0346FB71FB790A
:10039000002B03D0054B01221A6602E0034B00221A
:1003A0001A6600BF0C37BD4680BC704700A00840ED
:1003B00080B483B000AF786000BF054B5A6E7B6895
:1003C0001340002BF9D100BF0C37BD4680BC7047ED
:1003D00000A0084080B483B000AF7860054B9A6AF3
:1003E0007B68DB43034913408B6200BF0C37BD467B
:1003F00080BC704700A0084080B500AF00222849AB
:10040000002001F03FFD00222549012001F03AFDC6
:1004100000222349022001F035FD0022204903205B
:1004200001F030FD00221E49042001F02BFD0022C6
:100430001B49052001F026FD00221949062001F084
:1004400021FD00221649072001F01CFD0022FF219A
:10045000002001F0D5FD0022FF21012001F0D0FD98
:100460000022FF21022001F0CBFD0022FF2103200A
:1004700001F0C6FD0022FF21042001F0C1FD002291
:10048000FF21052001F0BCFD0022FF21062001F024
:10049000B7FD0022FF21072001F0B2FD00BF80BDA3
:1004A00000F00FF080B582B000AF0346FB71012170
:1004B000244800F061FD0321234800F05FFF402144
:1004C000224800F043FC012001F0AAF80121204855
:1004D00000F052FD4FF0FF30FFF77CFF1D4801F0A8
:1004E0006FFB0121082001F0C9FB0121102001F060
:1004F000C5FB0121802001F0C1FB01214FF4807078
:1005000001F0BCFB01214FF4007001F0B7FBFB7957
:10051000002B0DD04FF4402001F030FE4FF480301E
:1005200001F08AFB0C4BDB6F0B4A43F00803D367E7
:10053000FFF762FF4FF0FF30FFF73AFF00BF0837C9
:10054000BD4680BD0043020002001E0080002A005C
:1005500000362C005836000000800C4080B58AB070
:1005600000AF78607B6842F20E72934202DD42F285
:100570000F737B607B6813F57A7F01DC3D4B7B60FA
:100580007B68002B06DA786802F002FF78600123AE
:10059000BB6101E00023BB614FF0FF30FFF708FFB4
:1005A0000120FFF7EFFE00F06DF80123FB6100234F
:1005B0003B6254E07A68FB6992FBF3F22E4B83FBBB
:1005C00002139910D317C91A0B469B000B445B000A
:1005D000D11A0B46FB82BB69012B04D13B6A032B6A
:1005E00001D11023FB82FB8A244A32F81330BB82EC
:1005F00000237B6227E022493A6A1346DB009B1AFC
:100600005B00CA187B6A1344CB331B783B611C49DF
:100610003A6A1346DB009B1A5B00CA187B6A1344D4
:10062000C4331B78FB60BA8A7B6A42FA03F303F097
:100630000103002B04D001223969F86801F03EFB68
:100640007B6A01337B627B6A062BD4DDFA69134631
:100650009B0013445B00FB613B6A01333B623B6AD6
:10066000032BA7DD0020FFF78DFE00BF2837BD4616
:1006700080BD00BF19FCFFFF676666663436000068
:100680003434000080B500AF00227821012001F051
:10069000B7FC00227821022001F0B2FC0022782170
:1006A000032001F0ADFC00227821042001F0A8FC19
:1006B00000227821052001F0A3FC002278210620E9
:1006C00001F09EFC00227821072001F099FC00BF78
:1006D00080BD000080B584B000AF03463960FB7177
:1006E0000023FB600023BB60FB79102B79D801A2AB
:1006F00052F823F039070000430700004D070000BF
:1007000057070000610700006B0700007507000035
:100710007F07000089070000930700009D07000085
:10072000A7070000B1070000BB070000C5070000D5
:10073000CF070000D90700000123FB600C23BB603A
:1007400050E00023FB602023BB604BE00323FB60F1
:100750002723BB6046E00223FB600C23BB6041E023
:100760000023FB601C23BB603CE00323FB600C23E5
:10077000BB6037E00423FB600C23BB6032E0002346
:10078000FB601E23BB602DE00523FB602723BB60BD
:1007900028E00023FB602223BB6023E00023FB60F2
:1007A0002323BB601EE00723FB600C23BB6019E022
:1007B0000523FB600C23BB6014E00623FB600C23C5
:1007C000BB600FE00723FB601D23BB600AE007232B
:1007D000FB601F23BB6005E00423FB602723BB6095
:1007E00000E000BF3B68002B05D00122B968F86823
:1007F00001F064FA04E00022B968F86801F05EFADA
:1008000000BF1037BD4680BD80B487B000AFF86030
:10081000B9607A60FB6803F10473DA00BB681344C3
:100820009B007B617B697A681A6000BF1C37BD46FC
:1008300080BC704780B485B000AF786039607B6859
:1008400003F10473DA003B6813449B00FB60FB6810
:100850001B6818461437BD4680BC704780B485B00D
:1008600000AF78607B68002B03D07B68B3F5004F46
:1008700000BF7B68B3FA83F3DBB2C3F11F03FB60F5
:10088000FB6818461437BD4680BC704780B400AF83
:10089000034BDB6C1B0EDBB21846BD4680BC7047B9
:1008A000B081E00F80B400AF034BDB6C1B0CDBB2FC
:1008B0001846BD4680BC7047B081E00F80B582B05D
:1008C00000AFFFF7EFFF03464A2B04D0792B02D08D
:1008D000482B23D024E0154B1B699BB21B029BB213
:1008E00003F47C53FB80114B9B691B091B0103F034
:1008F000F0039AB2FB881343FB800C4BDB691B09A6
:1009000003F00F039AB2FB881343FB80FB88B3F517
:10091000017F01D3064B04E0064B02E0054B00E0EB
:10092000002318460837BD4680BD00BFD0FF0FE04A
:1009300000366E010048E80180B584B000AF7860F1
:100940000123FB60FFF7BAFF02467B68934204D89D
:100950000023FB600023BB600BE0FFF7AFFF034603
:100960005B007A689A4202D80123BB6001E002234F
:10097000BB60FA681E210848FFF746FF064B5B681C
:1009800023F48072BB681B02034913434B6000BF12
:100990001037BD4680BD00BF00800C4080B582B0DE
:1009A00000AF1E210448FFF745FF78607B681846BA
:1009B0000837BD4680BD00BF00800C4080B582B0C6
:1009C00000AF214B5B6903F4E063B3F5007F1CD0FB
:1009D000B3F5007F05D8002B25D0B3F5807F1FD05D
:1009E0002AE0B3F5C06F24D0B3F5E06F1ED0B3F5A5
:1009F000407F21D1FFF74AFF0346122B02D9134B48
:100A00007B601CE0124B7B6019E0FFF73FFF034661
:100A1000122B02D90F4B7B6011E00F4B7B600EE075
:100A20000E4B7B600BE00E4B7B6008E00D4B7B6058
:100A300005E00D4B7B6002E000237B6000BF7B681C
:100A400018460837BD4680BD00800C40804F12001C
:100A500040420F0040B56400C0CF6A00C0D8A70074
:100A6000809FD500406F4001003FAB0180B582B050
:100A700000AF0D4800F0D4FB0346FB70FB78072B5A
:100A800005D0092B07D1FFF7CBFB786006E0FFF715
:100A900095FF786002E000237B6000BF7B6818460A
:100AA0000837BD4680BD00BF06000E0080B485B08B
:100AB00000AF78603960204B5B6803F00703FB6090
:100AC000FB68012B01D9042B02D10023FB7202E049
:100AD0000123FB7200BF7B68184A934207D9FB7A57
:100AE000002B01D0052300E00423FB6016E07B68A7
:100AF000124A93420BD87B68114A934207D9FB7A7A
:100B0000002B01D0032300E00123FB6006E0FB7A09
:100B1000002B01D0022300E00023FB60064B5B6842
:100B200023F007020449FB6813434B6000BF1437EE
:100B3000BD4680BC704700BF00000C400048E80183
:100B40000024F40080B582B000AF0E4BDB6B002BAD
:100B500014BF01230023FB710A4B41F67132DA63A3
:100B6000FFF754FB034600211846FFF79FFFFB7970
:100B7000002B02D0034B0022DA6300BF0837BD46CA
:100B800080BD00BF00000C4080B584B000AF78602D
:100B900039600C4BDB6B002B14BF01230023FB736C
:100BA000084B41F67132DA6339687868FFF77EFFE7
:100BB000FB7B002B02D0034B0022DA6300BF10370F
:100BC000BD4680BD00000C4090B585B000AF786098
:100BD0000023BB607B68344A934203D0334A93427C
:100BE00000D000E000BF786800F01AFB0346FB600D
:100BF0007B682D4A934203D02C4A934206D00CE0E6
:100C00002B4B9B6A03F00303FB6006E0284B9B6AB7
:100C10009B0803F00303FB6000BFFB68032B39D87C
:100C200001A252F823F000BF5F0C0000390C000055
:100C3000410C0000490C0000FFF78AFBB8602DE072
:100C4000FFF796FBB86029E0FFF7C6FA0446FFF706
:100C5000A5FE0346013324FA03F3BB601EE0002324
:100C6000BB607B68104A934203D07B680F4A934273
:100C700013D10F4B9A6A7B680B498B4201D1102329
:100C800000E0142322FA03F3002B06D0FFF768FBE1
:100C9000B86002E00023BB6000E000BFBB681846FC
:100CA0001437BD4690BD00BF02001E0003002000A7
:100CB00000800C4080B483B000AF7860094B5B6D5E
:100CC00003F00103002B07D100BF064B1A6D7B68B0
:100CD0001340002BF9D100E000BF0C37BD4680BCAB
:100CE000704700BF00800C4080B582B000AF104854
:100CF00000F096FA0346FB70FB78032B07D0092B14
:100D000009D0022B0BD1FFF733FB78600AE0FFF725
:100D10001FFB786006E0FFF783FA786002E00023AB
:100D20007B6000BF7B6818460837BD4680BD00BFAA
:100D30000723260080B400AF00BFBD4680BC7047CB
:100D400080B400AF00BFBD4680BC704790B585B091
:100D500000AF786039607B681B0903F00F03FB600C
:100D6000FB68013B082B00F2F48001A252F823F04B
:100D7000950D0000530F0000530F0000C90D000037
:100D8000530F0000530F0000F10D00003D0E000056
:100D9000FF0E00003B68002B02D03B68082B00BF11
:100DA000FFF7D0FE6D4B1B6823F4E0323B68013B3C
:100DB0009B036A4913430B60FFF70EFAB8600021EA
:100DC000B868FFF7E1FEC5E03B68002B03D03B6845
:100DD000B3F5007F00BF3868FFF740FD38605F4B18
:100DE0009B6823F00F025D493B6813438B60B1E0C1
:100DF0003B68002B03D03B68B3F5007F00BFFFF7D3
:100E0000A1FEFFF70DFA02463B68B2FBF3F318466A
:100E1000FFF792FD3868FFF721FD38604F4B5B68A4
:100E200023F00F024D493B6813434B60FFF7D4F9A1
:100E3000B8600021B868FFF7A7FE8BE07B68484ADE
:100E400093421ED0464A934203D8464A934207D063
:100E500054E0454A934225D0444A93423ED04DE067
:100E60000420FFF727FF3868FFF7F8FC38603B4B9A
:100E70009B6E23F0F0023B681B01384913438B66DD
:100E80003CE00420FFF716FF3868FFF7E7FC386006
:100E9000324B9B6E23F470623B681B022F49134355
:100EA0008B662BE03B680F2B02D93B68802B00BF81
:100EB0000420FFF7FFFE3868FFF7D0FC3860274BAF
:100EC0009B6E23F440541020FFF7C8FC02463B6899
:100ED0009B1A1B03214A234393660FE00420FFF76C
:100EE000E9FE3868FFF7BAFC38601C4B9B6E23F0B4
:100EF00003021A493B6813438B6600BF2AE07B68F4
:100F00001B4A934203D01B4A934210D020E040205A
:100F1000FFF7D0FE3868FFF7A1FC38600F4B1B6F5E
:100F200023F003020D493B6813430B6710E0402098
:100F3000FFF7C0FE3868FFF791FC3860074B1B6F66
:100F400023F030023B681B01044913430B6700BFC9
:100F500000E000BF00BF1437BD4690BD00800C40CC
:100F6000802616008016120080002A0080062E00BF
:100F700090071A0090171C0080B586B000AF78600B
:100F80000B46FB7000233B617B681B0A03F00F03D9
:100F9000013B092B45D801A252F823F0D90F0000DC
:100FA000DF0F0000C50F0000231000002310000019
:100FB000E50F0000EF0F00002310000023100000D9
:100FC000F90F0000194B7B61194800F03DF803460A
:100FD0001846FFF7B1FC12E0164B7B610FE0164B91
:100FE0007B610CE0154B7B6101233B6107E0144BF7
:100FF0007B6110233B6102E0124B7B6100BF7B6889
:101000001B0B03F01F03FB603B69002B02D0386908
:10101000FFF750FEFB781A46F9687869FFF7F4FB92
:1010200000E000BF1837BD4680BD00BF40800C40C7
:101030000043020008800C4044800C4058800C4063
:1010400060800C4078800C4090B585B000AF78602F
:101050007B6803F47813B3F5D01F00F0AB80B3F5D1
:10106000D01F1AD8B3F5602F00F0BF80B3F5602F02
:1010700008D8B3F5003F3CD0B3F5802F2DD0002B1E
:1010800027D0BEE0B3F5901F3CD0B3F5B01F47D0DA
:10109000B3F5801F00F0AD80B3E0B3F5181F00F08A
:1010A000AC80B3F5181F0AD8B3F5F01F25D0B3F5FF
:1010B000001F7AD0B3F5E01F00F08980A1E0B3F5FE
:1010C000301F4ED0B3F5381F62D0B3F5281F35D08E
:1010D00097E0FFF7A5F8F86096E0FFF7A1F8F86051
:1010E0004C4B9B6803F00F03FA6822FA03F3FB6092
:1010F0008AE0FFF771F8F86086E04748FFF764FD83
:10110000F86081E04448FFF75FFDF860414B9B6E5B
:101110001B0903F00F03FA6822FA03F3FB6073E084
:101120003D48FFF751FDF8603A4B9B6E1B0A03F0F8
:101130000F03FA6822FA03F3FB6065E03648FFF715
:1011400043FDF860334B9B6E1B0B03F00304102030
:10115000FFF784FB03462344FA6822FA03F3FB609B
:1011600052E02D48FFF730FDF8602A4B9B6E1B0BB9
:1011700003F00303FA6822FA03F3FB60254BDB6FED
:1011800003F007030133FA68B2FBF3F3FB603BE0C3
:101190002148FFF719FDF8601E4B9B6E03F0030317
:1011A000FA6822FA03F3FB602EE01C48FFF70CFDFF
:1011B000F86029E01948FFF707FDF860154B1B6F31
:1011C00003F00303FA6822FA03F3FB601CE0134800
:1011D000FFF7FAFCF8600F4B1B6F1B0903F00303CA
:1011E000FA6822FA03F3FB600EE0FFF73FFCF860B9
:1011F0000AE0FFF7E3FBF86006E0FFF775FDF86033
:1012000002E00023FB6000BFFB6818461437BD46B0
:1012100090BD00BF00800C4002001E0003002000B3
:1012200080B485B000AF78600123FB737B6803F066
:101230000F03BB60BB68013B062B00F2938001A249
:1012400052F823F06112000097120000D312000040
:1012500065130000651300000F1300003113000038
:10126000454BDB6A03F47053B3F5805F09D0B3F5E7
:10127000005F03D0B3F5006F06D008E00223FB73D4
:1012800008E00323FB7305E00423FB7302E005235E
:10129000FB7300BF69E0384B9B6A03F00303022B2A
:1012A00006D0032B07D0012B08D10323FB730FE0DB
:1012B0000223FB730CE00623FB7309E02E4B9B6AB1
:1012C00003F48033002B02D00A23FB7300E000BF3D
:1012D0004BE0294B9B6A03F00C03082B06D00C2B28
:1012E00007D0042B08D10323FB730FE00223FB7309
:1012F0000CE00623FB7309E01F4B9B6A03F4801389
:10130000002B02D00A23FB7300E000BF2DE01A4B34
:101310001B6803F08053002B03D0B3F1805F03D030
:1013200023E00723FB7302E00923FB7300BF1CE0EB
:10133000114BDB6A03F46033B3F5803F08D0B3F59B
:10134000003F08D0B3F5004F08D10923FB7308E034
:101350000223FB7305E00323FB7302E00123FB730D
:1013600000BF02E00023FB7300BFFB7B184614376D
:10137000BD4680BC704700BF00800C4080B588B07F
:1013800000AF78600B46FB700323FB610323FB7601
:1013900000233B617B6803F00F03FB60FB68013BAC
:1013A000062B00F22C8101A252F823F0C913000091
:1013B000A7140000A7140000FF150000FF1500008F
:1013C0006D15000097150000FB78023B082B00F21A
:1013D000188101A252F823F0FD1300000714000049
:1013E000111400005314000003160000031600003F
:1013F0000316000003160000031600000423FB611F
:101400000023FB7631E00323FB610123FB762CE014
:101410000223FB610223FB76FFF750FA03460133F8
:101420001846FFF789FAFEF77BFF0246784B9A428F
:1014300006D9784B1B68774A43F06003136014E0C9
:10144000744B1B6823F06003724A43F0200313605F
:101450000BE00123FB610323FB76FFF72FFA034622
:1014600001331846FFF768FA00BFFB7E0122012115
:10147000184600F0F3F8FFF765FBFFF75BFC654AE1
:10148000FB6953626448FFF7DFFD03461846FFF728
:1014900053FAFEF7A1FEB8600021B868FFF774FBAD
:1014A000FFF74EFCB0E0FB78013B092B00F2AB806C
:1014B00001A252F823F000BFE1140000E71400007D
:1014C000F7140000071600000716000007150000BB
:1014D000071600000716000007160000231500007D
:1014E00000237B6122E001220121002000F0B6F8F8
:1014F00002237B611AE001220121012000F0AEF8F5
:1015000001237B6112E0FEF767FEB860B868FFF761
:1015100013FA012204214148FFF776F903237B6186
:1015200004E000237B6101233B6100BFFB68022BC9
:101530000DD1384B9B6A23F4803323F003037A697F
:101540001A433B691B04334913438B625CE0314B04
:101550009B6A23F4801323F00C037A6992001A43E8
:101560003B691B052B4913438B624DE0FB78072B2E
:1015700002D0092B07D047E0264B1B68254A23F0F1
:101580008053136006E0234B1B68224A43F08053CC
:10159000136000BF38E0FB78032B14D0092B22D056
:1015A000022B00D030E001220121002000F056F88B
:1015B000184B40225A6200BF164BDB6A03F480339B
:1015C000002BF9D01AE001220121012000F046F899
:1015D000104B60225A6200BF0E4BDB6A03F40033EB
:1015E000002BF9D00AE00B4B20225A6200BF094BB6
:1015F000DB6A03F40043002BF9D000BF04E000BF16
:1016000002E000BF00E000BF2037BD4680BD00BF44
:101610000048E80100800C400043020040800C407C
:1016200080B483B000AF78600B4B9B6D03F0080370
:10163000002B0CD17B6803F007037B60064BDB6F4C
:1016400023F0070204497B681343CB6700E000BF27
:101650000C37BD4680BC704700800C4080B586B01A
:1016600000AF0346FB710B46BB7113467B71FB79E0
:10167000042B48D801A252F823F000BFC91600007D
:10168000BB1600009F16000091160000AD1600006A
:1016900001233B610223FB6001237B611DE00423E6
:1016A0003B610823FB6003237B6116E010233B6151
:1016B0002023FB6005237B610FE040233B618023F7
:1016C000FB6007237B6108E04FF480733B614FF4BC
:1016D0000073FB6009237B6100BFBB79002B0ED038
:1016E0000B4A3B6913627B79002B0DD000BF7969EF
:1016F0000848FFF79FF80346002BF8D004E0044A9F
:10170000FB68136200E000BF1837BD4680BD00BF14
:1017100000800C402C800C4080B487B000AFF86093
:10172000B9607A60FB6803F10473DA00BB681344A4
:101730009B007B617B697A681A6000BF1C37BD46DD
:1017400080BC704780B586B000AFF860B9601346C2
:10175000FB71BB68002B03D1FB6808337B6102E09F
:10176000FB680C337B61FB791A4600217869FFF72F
:10177000D3FF00BF1837BD4680BD000080B584B0E0
:1017800000AF786039607B6808330022002118467A
:10179000FFF7C2FF7B680C33002200211846FFF7D9
:1017A000BBFF3B685B78012B02D0022B05D009E020
:1017B000254BDA697B68DA6209E0234B1A6A7B6899
:1017C000DA6204E0204B9A697B68DA6200BF3B680A
:1017D0001B781A053B681B791B0403F4E0231A43AA
:1017E0003B685B781B021A433B689B781B011A43DA
:1017F0003B68DB789B001343FB603B689B79002BC5
:1018000003D0FB6843F08003FB603B68DB79002B6F
:1018100003D0FB6843F04003FB603B681B7A002B5E
:1018200003D0FB6843F00203FB603B685B7A002B4C
:1018300003D0FB6843F00103FB607B68FA681A6021
:1018400000BF1037BD4680BDB081E00F80B487B0C7
:1018500000AFF860B9607A60FB6803F10473DA00E6
:10186000BB6813449B007B617B697A681A6000BF88
:101870001C37BD4680BC704780B485B000AFF860AF
:10188000B9607A60FB681A68BB68DB431A407B6802
:101890001A43FB681A6000BF1437BD4680BC70470E
:1018A00080B483B000AF7860044A7B68C2F81C3112
:1018B00000BF0C37BD4680BC704700BF00600040D1
:1018C00080B483B000AF03463960FB71FB79002B15
:1018D0000DD0FB79012B0AD0FB79022B07D0FB79C5
:1018E000032B04D0FB79042B01D0FB79052B0122BB
:1018F0003B6802FA03F30749FA7918461346DB00FE
:1019000013449B000B441433186000BF0C37BD46D2
:1019100080BC70470060004080B483B000AF0346D5
:101920003960FB71FB79002B0DD0FB79012B0AD0BC
:10193000FB79022B07D0FB79032B04D0FB79042B16
:1019400001D0FB79052B01223B6802FA03F307491A
:10195000FA7918461346DB0013449B000B441033FE
:10196000186000BF0C37BD4680BC70470060004067
:1019700080B586B000AFB9607A601A460346FB7343
:101980001346BB7300237B61FB7B002B0DD0FB7BDD
:10199000012B0AD0FB7B022B07D0FB7B032B04D04F
:1019A000FB7B042B01D0FB7B052B7B68072B0ED820
:1019B0007B689B00072202FA03F1FA7B7B689B009D
:1019C00002FA03F31A461A48FFF756FF10E07B6845
:1019D000083B7B617B699B00072202FA03F1FA7BDB
:1019E0007B699B0002FA03F31A461248FFF744FF93
:1019F000BB7B1A4679681048FFF728FF97F820301C
:101A00001A4679680D48FFF721FF01227B6802FA28
:101A100003F31846FFF744FF97F824301A46796815
:101A20000748FFF713FF00BF1837BD4680BD00BF52
:101A30000061004004610040086100400C6100400A
:101A40001061004080B584B000AFB9607B60034690
:101A5000FB731346BB73FB7B002B0DD0FB7B012B71
:101A60000AD0FB7B022B07D0FB7B032B04D0FB7B34
:101A7000042B01D0FB7B052BBB7B002B0DD07B689F
:101A8000002B05D0FB7BB9681846FFF745FF04E043
:101A9000FB7BB9681846FFF713FFBB68072B20D8FC
:101AA0002D49FA7B1346DB0013449B000B4404339F
:101AB0001A68BB689B000F2101FA03F3DB43134054
:101AC000B97BBA68920001FA02F211462248FA7B09
:101AD00019431346DB0013449B000344043319608D
:101AE00025E01D49FA7B1346DB0013449B000B44A1
:101AF00008331A68BB6803F18043083B9B000F2141
:101B000001FA03F3DB4302EA0301BA7BBB6803F18A
:101B10008043083B9B0002FA03F30F48FA7B19430A
:101B20001346DB0013449B00034408331960BB7B5E
:101B3000002B0DD17B68002B05D0FB7BB9681846C4
:101B4000FFF7EAFE04E0FB7BB9681846FFF7B8FE32
:101B500000BF1037BD4680BD0060004080B483B038
:101B600000AF0346FB71FB79002B06D0084B1B68C6
:101B7000074A43F00103136005E0054B1B68044A64
:101B800023F00103136000BF0C37BD4680BC7047D3
:101B900000A0084080B487B000AFF860B9607A60F8
:101BA000FB6803F10473DA00BB6813449B007B619C
:101BB0007B697A681A6000BF1C37BD4680BC7047DD
:101BC00080B584B000AF78601A4B5B68FB60002082
:101BD000FFF7C4FFFB6823F4830323F01F03FB60BC
:101BE0007B685B68FA681343FB607B681B7A1A4664
:101BF000FB681343FB607B685B7A1A46FB68134300
:101C0000FB607B68DB68FA681343FB607B681B8AB8
:101C10001A46FB681343FB60064AFB6853607B6807
:101C20001B78002B02D00120FFF798FF00BF103770
:101C3000BD4680BD00A0084080B485B000AF78608C
:101C40000D4B5B68FB60FB6823F48033FB607B68B3
:101C5000002B08D0B3F5803F00D005E0FB6843F4CB
:101C60008033FB6000E000BF034AFB68536000BFA5
:101C70001437BD4680BC704700A0084080B483B0D4
:101C800000AF03460A46FB8013467B717B79002B2D
:101C900006D0094B9A68FB88074913438B6006E01E
:101CA000054B9A68FB88DB43034913408B6000BFF8
:101CB0000C37BD4680BC704700A0084080B584B09A
:101CC00000AFF860B9601346FB71FB68072B00F2A8
:101CD000B38001A252F823F0F91C0000211D00007E
:101CE000491D0000711D0000991D0000C11D00006C
:101CF000E91D0000111E0000BB681F2B06DCBB683D
:101D0000FA7919464F48FFF745FF96E0BB68203B3C
:101D1000BB60BB68FA7919464B48FFF73BFF8CE084
:101D2000BB681F2B06DCBB68FA7919464748FFF7EA
:101D300031FF82E0BB68203BBB60BB68FA79194683
:101D40004348FFF727FF78E0BB681F2B06DCBB6822
:101D5000FA7919463F48FFF71DFF6EE0BB68203B4C
:101D6000BB60BB68FA7919463B48FFF713FF64E094
:101D7000BB681F2B06DCBB68FA7919463748FFF7AA
:101D800009FF5AE0BB68203BBB60BB68FA79194683
:101D90003348FFF7FFFE50E0BB681F2B06DCBB6833
:101DA000FA7919462F48FFF7F5FE46E0BB68203B5D
:101DB000BB60BB68FA7919462B48FFF7EBFE3CE0A5
:101DC000BB681F2B06DCBB68FA7919462748FFF76A
:101DD000E1FE32E0BB68203BBB60BB68FA79194684
:101DE0002348FFF7D7FE28E0BB681F2B06DCBB6843
:101DF000FA7919461F48FFF7CDFE1EE0BB68203B6D
:101E0000BB60BB68FA7919461B48FFF7C3FE14E0B4
:101E1000BB681F2B06DCBB68FA7919461748FFF729
:101E2000B9FE0AE0BB68203BBB60BB68FA79194683
:101E30001348FFF7AFFE00E000BF00BF1037BD46FC
:101E400080BD00BF40A0084050A0084044A008400A
:101E500054A0084048A0084058A008404CA00840A2
:101E60005CA00840CCA00840B4A00840D0A0084026
:101E7000B8A00840D4A00840BCA00840D8A00840A2
:101E8000C0A0084080B487B000AFF860B9607A6045
:101E9000FB68072B00F2AC8001A252F823F000BFD0
:101EA000C11E0000E51E0000091F00002D1F0000DC
:101EB000511F0000791F0000A11F0000C91F000072
:101EC0004E4B1B6C7B61BB68DB437A6913407B61C3
:101ED000BA687B6813407A6913437B61474A7B6920
:101EE000136486E0454B5B6C7B61BB68DB437A69BE
:101EF00013407B61BA687B6813407A6913437B6146
:101F00003E4A7B69536474E03C4B9B6C7B61BB68CD
:101F1000DB437A6913407B61BA687B6813407A6956
:101F200013437B61354A7B69936462E0334BDB6C1E
:101F30007B61BB68DB437A6913407B61BA687B686D
:101F400013407A6913437B612C4A7B69D36450E068
:101F50002A4BD3F8CC307B61BB68DB437A691340F2
:101F60007B61BA687B6813407A6913437B61234ABB
:101F70007B69C2F8CC303CE0204BD3F8D0307B6199
:101F8000BB68DB437A6913407B61BA687B681340A6
:101F90007A6913437B61194A7B69C2F8D03028E023
:101FA000164BD3F8D4307B61BB68DB437A691340AE
:101FB0007B61BA687B6813407A6913437B610F4A7F
:101FC0007B69C2F8D43014E00C4BD3F8D8307B6175
:101FD000BB68DB437A6913407B61BA687B68134056
:101FE0007A6913437B61054A7B69C2F8D83000E007
:101FF00000BF00BF1C37BD4680BC704700A0084032
:1020000080B487B000AFF860B9607A60FB68072BD6
:1020100000F2AC8001A252F823F000BF3D20000086
:102020006120000085200000A9200000CD200000D4
:10203000F52000001D210000452100004E4B1B6DC6
:102040007B61BB68DB437A6913407B61BA687B685C
:1020500013407A6913437B61474A7B69136586E0C5
:10206000454B5B6D7B61BB68DB437A6913407B61E9
:10207000BA687B6813407A6913437B613E4A7B6987
:10208000536574E03C4B9B6D7B61BB68DB437A69B5
:1020900013407B61BA687B6813407A6913437B61A4
:1020A000354A7B69936562E0334BDB6D7B61BB68CE
:1020B000DB437A6913407B61BA687B6813407A69B5
:1020C00013437B612C4A7B69D36550E02A4BD3F8DC
:1020D000B4307B61BB68DB437A6913407B61BA68CB
:1020E0007B6813407A6913437B61234A7B69C2F89A
:1020F000B4303CE0204BD3F8B8307B61BB68DB43A5
:102100007A6913407B61BA687B6813407A6913432C
:102110007B61194A7B69C2F8B83028E0164BD3F8C6
:10212000BC307B61BB68DB437A6913407B61BA6872
:102130007B6813407A6913437B610F4A7B69C2F85D
:10214000BC3014E00C4BD3F8C0307B61BB68DB4380
:102150007A6913407B61BA687B6813407A691343DC
:102160007B61054A7B69C2F8C03000E000BF00BF58
:102170001C37BD4680BC704700A0084080B483B0C7
:1021800000AF7860064B5B6823F4E01204497B687B
:1021900013434B6000BF0C37BD4680BC704700BF87
:1021A00000A0084080B485B000AF78601A4B5B692E
:1021B000DBB29B00DBB203F03C03FB73164B1B69E5
:1021C0009B09DBB203F00303DAB2FB7B1343FB731F
:1021D0007B68FA7B9A70104B1B69DBB203F03F03FC
:1021E000DAB27B685A700C4B9B691B09DBB21B018E
:1021F000FB73094BDB691B09DBB203F00F03DAB297
:10220000FB7B1343FB737B68FA7B1A7000BF1437A8
:10221000BD4680BC704700BFD0FF0FE080B483B0E4
:1022200000AF78607B680D4A93420BD07B680C4A04
:10223000934207D07B680B4A934203D07B680A4ADB
:10224000934201D1012300E0002303F00103DBB23C
:1022500018460C37BD4680BC704700BF00000140E7
:102260000004014000080140000C014080B584B02A
:1022700000AF786039607868FFF7D0FF0023FB601B
:102280003B681B7883F00103DBB2002B02D07B6834
:1022900002225A607B6800225A623B689B781A06C9
:1022A0003B68DB781B041A433B689B799B021A430B
:1022B0003B68DB791B0213433A68127A13433A688E
:1022C0005278002A01D0402200E0002213433A68ED
:1022D000527A002A01D0802200E0002213433A689B
:1022E000927A002A01D0202200E0002213433A68AB
:1022F000D27A002A01D0102200E0002213433A686B
:10230000127B002A01D0082200E000221343FB6068
:102310003B681B79002B02D04FF4005200E00022F2
:102320003B685B79002B02D04FF0805300E0002324
:102330001343FA681343FB607B68FA681A603B68D2
:102340001B78002B02D07B6801225A6000BF103737
:10235000BD4680BD80B483B000AF78600B46FB7093
:10236000FB7843F01003DBB21A467B689A6500BF26
:102370000C37BD4680BC704780B586B000AFF860B2
:10238000B9607A60FB70BB68002B03D12448FEF76C
:102390005BFEB860FB78202B0CD0202B02DC002BDE
:1023A00005D03AE0402B08D0602B09D035E010234F
:1023B0007B6108E008237B6105E006237B6102E086
:1023C00004237B6100BFBB689A007B69796801FBCD
:1023D00003F35B0813443B617B697A6802FB03F3F8
:1023E0003A69B2FBF3F33B613B69043B3B613B69F8
:1023F0009B013B613A690B4B13403B61FB681B68D7
:1024000023F06002FB681A60FB681A68FB781A43C5
:10241000FB681A60FB683A695A611837BD4680BD8F
:1024200040810400C0FF1F0080B582B000AF78601B
:1024300039607B68284A93420ED07B68274A9342D2
:102440000AD07B68264A934206D07B68254A93428D
:1024500002D07B68244A934200BF786800F046F8B7
:102460003B689B7C002B05D07B681B6843F0804257
:102470007B681A603B68DB7C002B05D03B681B7DCA
:1024800019467868FFF766FF3B685B7B1A463B6836
:102490001B8A13433A68D2891A437B685A603B68A7
:1024A00059683B689A683B681B7B7868FFF764FF54
:1024B0003B685B7D002B05D07B681B6843F4803252
:1024C0007B681A603B681B781A467B68DA6000BF3D
:1024D0000837BD4680BD00BF00C0004000C40040BA
:1024E00000C8004000E0004000E4004080B483B039
:1024F00000AF78607B68244A93420ED07B68234A01
:1025000093420AD07B68224A934206D07B68214AD4
:10251000934202D07B68204A934200BF7B6840F61A
:10252000AA62DA607B6800221A607B6841F20502C9
:102530005A607B6800229A607B6800225A617B683F
:102540000022DA647B6841F6F9729A647B680022A3
:102550005A657B680C4A934202D17B6800221A6557
:102560007B6800229A657B68084A934203D07B68A7
:10257000074A934202D17B680022DA6500BF0C371C
:10258000BD4680BC704700BF00C0004000C4004092
:1025900000C8004000E0004000E4004080B483B088
:1025A00000AF78600B46FB7000BF7B681B6903F0CF
:1025B0004003002BF9D0FA787B685A6300BF0C37D0
:1025C000BD4680BC704780B483B000AF786039608E
:1025D0007B683A681A6200BF0C37BD4680BC704702
:1025E00080B584B000AF01210D48FEF7C5FC3B1D4E
:1025F00000221A605A601A810123BB7101237B718A
:102600003B1D19464FF04020FFF7B8F8012200218A
:102610004FF04020FFF796F800BF1037BD4680BD51
:1026200000120500B0B588B000AF7860284B07F104
:102630000C041D460FCD0FC42B6823604FF07C5156
:10264000786800F053FE0346002B05D0FB6819465E
:102650004FF04020FFF7B7FF4FF07E51786800F051
:1026600045FE0346002B05D03B6919464FF040203C
:10267000FFF7A9FF4FF07F51786800F037FE03465F
:10268000002B05D07B6919464FF04020FFF79BFFD8
:102690004FF08041786800F029FE0346002B05D0FA
:1026A000BB6919464FF04020FFF78DFF0949786854
:1026B00000F01CFE0346002B00D105E0FB69194623
:1026C0004FF04020FFF77FFF00BF2037BD46B0BD71
:1026D0006C3600000000204080B483B000AF034699
:1026E000FB7197F90730002B0BDBFB7903F01F021E
:1026F000064997F907305B09012000FA02F241F818
:10270000232000BF0C37BD4680BC704700E100E0CD
:1027100080B483B000AF7860044A7B68C2F81C3193
:1027200000BF0C37BD4680BC704700BF0060004052
:1027300080B584B002AF396011461A460346FB717A
:102740000B46BB7113467B71BA79F8793B7C0193D8
:102750007B79009313463A683968FFF709F900BF9F
:102760000837BD4680BD000080B500AF054B002294
:102770001A70054B01221A704FF6FF70FFF7C8FF61
:1027800000BF80BD0C0000209800002080B500AF85
:102790001B4B1B78002B2DD01A4B1B684FF0804130
:1027A000184600F0ADFD0346002B15D0154B1B68F5
:1027B0004FF07C51184600F0FDFA03461A46114BC3
:1027C0001A60104B1B681846FFF72CFF0D4B1B6857
:1027D000184600F077F80DE00A4B4FF07C521A6073
:1027E000084B1B681846FFF71DFF064B1B68184671
:1027F00000F068F84FF6FF70FFF78AFF00BF80BD5A
:102800000C0000201000002080B582B002AF012132
:102810001F48FEF7B1FB0023012209210120FFF729
:1028200011F9002301220A210120FFF70BF90023EF
:10283000012200210320FFF705F9002301220121D5
:102840000320FFF7FFF80023012202210320FFF7F6
:10285000F9F80023012203210320FFF7F3F80123F5
:1028600000930123002209210120FFF761FF0123CA
:102870000093012300220A210120FFF759FF0120C4
:10288000FFF72AFF0B20FFF727FF00BFBD4680BDE3
:1028900000D2040080B400AF034B01221A7000BFC5
:1028A000BD4680BC704700BF0C00002080B400AF64
:1028B000034B00221A7000BFBD4680BC704700BFAA
:1028C0009800002080B584B000AF7860786800F090
:1028D0003FFD0346FB73FB7B184600F01FFB0346DE
:1028E0001946786800F064FA03460F49184600F06C
:1028F00069FB0346184600F02BFD0346BB73FB7BC8
:10290000642202FB03F1BA7B13469B0013445B0075
:102910000B441846FDF722FE01211020FDF7DAFED8
:1029200000BF1037BD4680BD0000204180B400AF1D
:10293000034BDB6C1B0EDBB21846BD4680BC7047F8
:10294000B081E00F80B483B000AF0346FB71FB7928
:10295000002B0DD0FB79012B0AD0FB79022B07D07D
:10296000FB79032B04D0FB79042B01D0FB79052BD9
:102970000649FA791346DB0013449B000B441C33D1
:102980001B6818460C37BD4680BC7047006000408D
:1029900080B582B000AF0E4B01221A64FFF7C6FF6C
:1029A0000346FB713B1D1846FFF7FCFBFB790F2B21
:1029B0000AD93B79022B07D9064B1B6823F0500339
:1029C000044A43F01003136000BF0837BD4680BDC2
:1029D00000000C40C0800C4080B582B000AFFFF713
:1029E000D7FF0020FDF75EFD00F086F9FFF7F8FD48
:1029F000394B1B681846FFF715FE374B1B68184606
:102A0000FFF760FFFFF700FF00F0D6F800BF334B81
:102A10001B78002BFBD159E000237B6038E000BF1E
:102A20002F4B1B78002BFBD00320FFF78BFF0346B7
:102A3000DAB22C4B1A702B4B1B781B01DAB2294BE4
:102A40001A70284B1978284A7B6813440A461A7072
:102A500000F0E8F800BF224B1B78002BFBD00320CE
:102A6000FFF770FF0346DAB21E4B1A701E4A7B68EE
:102A700013441A781B4B1B781344D9B21A4A7B684B
:102A800013440A461A7000F0CDF87B6801337B606E
:102A90007B68B3F5806FC2DB00233B600AE0124A1B
:102AA0003B6813441B7819461048FFF777FD3B68D5
:102AB00001333B603B68B3F5806FF0DB0A210B48C4
:102AC000FFF76CFDFFF7E6FEFFF7F0FE084B1B7803
:102AD000002BA1D19AE700BF100000200C000020BD
:102AE000A00400209C000020A000002000E0004086
:102AF0009800002080B483B000AF0346FB7197F9C3
:102B00000730002B0BDBFB7903F01F02064997F916
:102B100007305B09012000FA02F241F8232000BFD0
:102B20000C37BD4680BC704700E100E080B483B044
:102B300000AF78604FF6FF7318460C37BD4680BC77
:102B4000704780B582B000AF786039607868FFF771
:102B5000EDFF7B683A685A6200BF0837BD4680BD0A
:102B600080B483B000AF786039607B683A689A615E
:102B700000BF0C37BD4680BC704780B483B000AF47
:102B8000786039607B68DA683B681A437B68DA6092
:102B900000BF0C37BD4680BC704780B582B000AF27
:102BA000786039607868FFF7C1FF7B683A68DA615E
:102BB00000BF0837BD4680BD80B584B000AF01219D
:102BC0001548FEF7C3F801211448FEF7D5F93B4636
:102BD00000221A605A609A601A7301233B703B46C8
:102BE00019460F48FFF742FB00210D48FFF7A9FFE8
:102BF0004FF42F610A48FFF7D0FF01210848FFF783
:102C0000AFFF01210648FFF7B8FF0220FFF772FF70
:102C100000BF1037BD4680BD408104000052040053
:102C20000000014080B400AF034B00221A7000BFC7
:102C3000BD4680BC704700BFA004002080B400AF38
:102C4000034B01221A7000BFBD4680BC704700BF15
:102C5000A004002080B500AFFFF7F0FF012102487B
:102C6000FFF77EFF00BF80BD0000014080B483B04D
:102C700000AF0346FB7197F90730002B0BDBFB79A4
:102C800003F01F02064997F907305B09012000FA9B
:102C900002F241F8232000BF0C37BD4680BC7047CC
:102CA00000E100E080B483B000AF786039607B68F9
:102CB000DA6C3B681A437B68DA6400BF0C37BD46A8
:102CC00080BC704780B483B000AF78607B68DB69FC
:102CD000DBB218460C37BD4680BC704780B582B069
:102CE00000AF0448FFF7EEFF0346FB7100BF083753
:102CF000BD4680BD00E0004080B586B000AF012138
:102D00002648FEF739F900237B754FF4E133BB60A9
:102D100005237B7305233B700023BB7400233B73A7
:102D20000023FB8100233B750023FB7400237B60A1
:102D30004FF480533B823B4619461948FFF774FB1A
:102D4000174B5B6D164A43F003035365144B5B6DE1
:102D5000134A43F48073536501211248FEF70CF9BE
:102D60000123042200210420FEF76CFE002301222F
:102D700001210420FEF766FE01230422072105201D
:102D8000FEF760FE04210648FFF78CFF1420FFF7D2
:102D90006DFF00BF1837BD4680BD00BF0032040084
:102DA00000E0004000D2040080F0004002E000BFDC
:102DB00081F0004142001FBF5FEA410392EA030F26
:102DC0007FEA226C7FEA236C6AD04FEA1262D2EB70
:102DD0001363C1BFD218414048404140B8BF5B4275
:102DE000192B88BF704710F0004F40F4000020F00E
:102DF0007F4018BF404211F0004F41F4000121F024
:102E00007F4118BF494292EA030F3FD0A2F101026D
:102E100041FA03FC10EB0C00C3F1200301FA03F1AB
:102E200000F0004302D5494260EB4000B0F5000FCE
:102E300013D3B0F1807F06D340084FEA310102F18D
:102E40000102FE2A51D2B1F1004F40EBC25008BF3F
:102E500020F0010040EA03007047490040EB000009
:102E600010F4000FA2F10102EDD1B0FA80FCACF138
:102E7000080CB2EB0C0200FA0CF0AABF00EBC25037
:102E800052421843BCBFD0401843704792F0000F25
:102E900081F4000106BF80F400000132013BB5E778
:102EA0004FEA41037FEA226C18BF7FEA236C21D0EE
:102EB00092EA030F04D092F0000F08BF0846704753
:102EC00090EA010F1CBF0020704712F07F4F04D121
:102ED000400028BF40F00040704712F100723CBF34
:102EE00000F50000704700F0004343F0FE4040F45E
:102EF000000070477FEA226216BF08467FEA23631C
:102F00000146420206BF5FEA412390EA010F40F406
:102F1000800070474FF0000304E000BF10F0004352
:102F200048BF40425FEA000C08BF704743F0964339
:102F300001464FF000001CE050EA010208BF704754
:102F40004FF000030AE000BF50EA010208BF7047DB
:102F500011F0004302D5404261EB41015FEA010CF0
:102F600002BF84460146002043F0B64308BFA3F1E8
:102F70008053A3F50003BCFA8CF2083AA3EBC253CA
:102F800010DB01FA02FC634400FA02FCC2F12002E9
:102F9000BCF1004F20FA02F243EB020008BF20F020
:102FA0000100704702F1200201FA02FCC2F1200286
:102FB00050EA4C0021FA02F243EB020008BF20EA7B
:102FC000DC7070474FF0FF0C1CEAD0521EBF1CEAA9
:102FD000D15392EA0C0F93EA0C0F6FD01A4480EA97
:102FE000010C400218BF5FEA41211ED04FF0006380
:102FF00043EA501043EA5111A0FB01310CF00040AC
:10300000B1F5000F3EBF490041EAD3715B0040EAD1
:10301000010062F17F02FD2A1DD8B3F1004F40EBA1
:10302000C25008BF20F00100704790F0000F0CF074
:10303000004C08BF49024CEA502040EA51207F3A38
:10304000C2BFD2F1FF0340EAC250704740F4000013
:103050004FF00003013A5DDC12F1190FDCBF00F004
:1030600000407047C2F10002410021FA02F1C2F1B2
:10307000200200FA02FC5FEA310040F1000053EA4E
:103080004C0308BF20EADC70704792F0000F00F09C
:10309000004C02BF400010F4000F013AF9D040EAA2
:1030A0000C0093F0000F01F0004C02BF490011F436
:1030B000000F013BF9D041EA0C018FE70CEAD15334
:1030C00092EA0C0F18BF93EA0C0F0AD030F0004CB4
:1030D00018BF31F0004CD8D180EA010000F0004068
:1030E000704790F0000F17BF90F0004F084691F026
:1030F000000F91F0004F14D092EA0C0F01D1420260
:103100000FD193EA0C0F03D14B0218BF084608D128
:1031100080EA010000F0004040F0FE4040F4000072
:10312000704740F0FE4040F4400070474FF0FF0C05
:103130001CEAD0521EBF1CEAD15392EA0C0F93EA4C
:103140000C0F69D0A2EB030280EA010C49024FEA9E
:10315000402037D04FF0805343EA111143EA101357
:103160000CF000408B4238BF5B0042F17D024FF40F
:10317000000C8B4224BF5B1A40EA0C00B3EB510FEA
:1031800024BFA3EB510340EA5C00B3EB910F24BFD3
:10319000A3EB910340EA9C00B3EBD10F24BFA3EB58
:1031A000D10340EADC001B0118BF5FEA1C1CE0D120
:1031B000FD2A3FF650AF8B4240EBC25008BF20F0D3
:1031C000010070470CF0004C4CEA50207F32C2BF27
:1031D000D2F1FF0340EAC250704740F400004FF0C4
:1031E0000003013A37E792F0000F00F0004C02BFF5
:1031F000400010F4000F013AF9D040EA0C0093F0BF
:10320000000F01F0004C02BF490011F4000F013B18
:10321000F9D041EA0C0195E70CEAD15392EA0C0F80
:1032200008D142027FF47DAF93EA0C0F7FF470AFB8
:10323000084676E793EA0C0F04D14B023FF44CAFFB
:1032400008466EE730F0004C18BF31F0004CCAD190
:1032500030F000427FF45CAF31F000437FF43CAFCC
:103260005FE700BF4FF0FF3C06E000BF4FF0010CEE
:1032700002E000BF4FF0010C4DF804CD4FEA4002D0
:103280004FEA41037FEA226C18BF7FEA236C11D01A
:1032900001B052EA530C18BF90EA010F58BFB2EBCD
:1032A000030088BFC81738BF6FEAE17018BF40F04D
:1032B000010070477FEA226C02D15FEA402C05D101
:1032C0007FEA236CE4D15FEA412CE1D05DF8040B86
:1032D000704700BF844608466146FFE70FB5FFF719
:1032E000C9FF002848BF10F1000F0FBD4DF808EDD1
:1032F000FFF7F4FF0CBF012000205DF808FB00BFC2
:103300004DF808EDFFF7EAFF34BF012000205DF81B
:1033100008FB00BF4DF808EDFFF7E0FF94BF012068
:1033200000205DF808FB00BF4DF808EDFFF7D2FF65
:1033300094BF012000205DF808FB00BF4DF808EDA8
:10334000FFF7C8FF34BF012000205DF808FB00BF75
:1033500042000ED2B2F1FE4F0BD34FF09E03B3EBFF
:10336000126209D44FEA002343F0004323FA02F02B
:1033700070474FF00000704712F1610F01D1420217
:1033800002D14FF0FF3070474FF00000704700BF90
:103390000028B8BF4042704708B5074B044613B138
:1033A0000021AFF30080054B1868836A03B198478A
:1033B000204600F031F800BF000000008036000019
:1033C00070B500250C4E0D4CA41BA410A54209D1CC
:1033D00000F024F800250A4E0A4CA41BA410A542B4
:1033E00005D170BD56F8253098470135EEE756F8FF
:1033F000253098470135F2E7740000207400002062
:10340000740000207800002003460244934200D15B
:10341000704703F8011BF9E7FEE700BFF8B500BFEE
:10342000F8BC08BC9E467047F8B500BFF8BC08BCA5
:103430009E467047010105070703040203020406C4
:1034400005060D0E0E0E0D0D0D0D0E0E0E0E0D0DB4
:1034500001010507070304020302040605060F1015
:1034600010100F0F0F0F101010100F0F0101050794
:1034700007030402030204060506111212121111B9
:103480001111121212121111010105070703040292
:10349000030204060506131C1C1C131313131C1C27
:1034A0001C1C131300010507060203010302040696
:1034B00004051D1E1E1E1D1D1D1D1E1E1E1E1D1D66
:1034C00000010507060203010302040604051F208C
:1034D00020201F1F1F1F202020201F1F0101050764
:1034E00007030402030204060506212222222121E9
:1034F0002121222222222121070502010306042381
:103500002323232323230705020103060424242461
:103510002424242407050201030604252525252546
:10352000252507050201030604262626262626262B
:1035300000010702062727272727000000000000B8
:103540000000131211100F0E0D0C000000002125B9
:10355000242601010304040203020D0E0D0D0E0DBD
:103560000E0E01010304040203020F100F0F100FCF
:1035700010100101030404020302111211111211AF
:1035800012120101030404020302131C13131C137F
:103590001C1C00010203040103021D1E1D1D1E1D33
:1035A0001E1E00010203040103021F201F1F201F13
:1035B00020200101030404020302212221212221EF
:1035C000222205070704040605060E0E0D0D0E0E39
:1035D0000D0D050707040406050610100F0F101047
:1035E0000F0F050707040406050612121111121227
:1035F000111105070704040605061C1C13131C1CE7
:10360000131305070603040604051E1E1D1D1E1EBA
:103610001D1D050706030406040520201F1F20208A
:103620001F1F050707040406050622222121222266
:10363000212100003F0006005B004F0066006D0086
:103640007D0007007F006F0077007C0039005E007E
:1036500079007100400000000100000003004000FC
:103660000C00000000000000000000003303000018
:103670006606000099090000CC0C0000FF0F000056
:0836800014000020000000000E
:0836880094CAFF7F010000005D
:10369000006CDC0200800000809FD500010000006B
:1036A0000000C03F0000000000000000000000001B
:1036B000000000000000000000000000000000000A
:1036C00000000000000000000000000000000000FA
:1036D00000000000000000000000000000000000EA
:1036E00000000000000000000000000000000000DA
:1036F00000000000000000000000000000000000CA
:0C3700000000000001010000DD000000DE
:040000030000019167
:00000001FF
